:10000000BBEF07F0F76A140FF66E000EF722090037
:10001000F5501200280C010654656D70657261740C
:100020007572613A2000543D202020202020253286
:100030002E32662020202020B0430000EA6A1A0EEB
:10004000E96EEF500EE0070E016E006A002EFED73B
:10005000012EFBD7C70E006E002EFED70000EF2E3C
:10006000F2D7120021B002D08C9801D08C889598DC
:1000700021B202D08C9A01D08C8A959A21B402D0F8
:100080008C9C01D08C8C959C21B602D08C9E01D08A
:100090008C8E959E00008C829592030E006E002E31
:1000A000FED700D08C9295921200226A9588000E9D
:1000B00083B8010E2212958A000E83BA010E006EDB
:1000C000D890003600502212958C000E83BC010E91
:1000D000006E00360036FC0E001600502212958E7F
:1000E000000E83BE010E006E003600360036F80E9C
:1000F00000160050221222C001F012009588958A45
:10010000958C958E8C84959400008C82959200003D
:10011000CCDF01C021F08C92959200008C829592E8
:1001200000D000D000D0C1DF01C020F08C929592A9
:100130009598959A959C959E2138006EF00E001624
:1001400000502010016EA8EF00F08C909590D6D74B
:1001500001C020F001BEFBD71E5202E18C9001D0FD
:100160008C80959000008C94959400008C929592D0
:100170001F38206E0F0E201620C021F073DF1F5095
:100180000F0B206E216E6EDF12009598959A959C4C
:10019000959E9592959095948C9095908C9495942D
:1001A0008C9295920F0E1A6E49DF010E0C6E0C5058
:1001B000030808E3030E216E55DF050E1A6E3EDFBD
:1001C0000C2AF5D7020E216E4DDF0C6A0C50030885
:1001D00009E3036A0C5016DF0D6E1E6A1F6EB5DF51
:1001E0000C2AF4D7D3EF07F08E0E006E0DC001F08D
:1001F0000CC002F0036A015209E102C001F0026A78
:10020000080E005E015202E1006A08D0D89001BEDB
:1002100004D0023601360006F9D7019ED0EF05F072
:100220002250D8B471D0006E2650D8B46DD00026BC
:1002300004E3810E002668E204D07F0E005E64E3D2
:1002400063E023C02AF027502A1A238E278E2550D8
:100250002902F4CF2CF024502802F4CF03F0F3CF7E
:100260002BF02902F3502C26F4502B22000E0322EF
:1002700025502802F3502C26F4502B22000E026A3F
:100280000322022223502902F3502B26F45003228A
:10029000000E022223502802F3500326F4500222BB
:1002A000000E016A012225502702F3502B26F4503C
:1002B0000322000E0222012224502702F3500326BB
:1002C000F4500222000E012223502702F35002268E
:1002D000F4500122002A01BE05D02B360336023627
:1002E00001360006000E2BAE0AD0032A022201229C
:1002F000015005E1025003E1035001E1002A2ABE4A
:10030000018E2AAE019E04D0006A016A026A036A65
:1003100012008E0E006E2250005E23C002F024C038
:1003200001F0028E005209E0D890025202E101521F
:1003300004E002320132002EF7D723AE05D0011EB1
:10034000021E012AD8B4022A03EF04F023C02AF0C7
:1003500027502A1A2AAE05D0D894D89023BED88028
:100360002FD023C02AF026C02BF022502B5E06E0AF
:100370002AAE26D0D850010AD86E22D027C02BF042
:1003800023502B5E06E02AAE1BD0D850010AD86E4F
:1003900017D028C02BF024502B5E06E02AAE10D0D8
:1003A000D850010AD86E0CD029C02BF025502B5EF6
:1003B00006E02AAE05D0D850010AD86E01D0D890F8
:1003C0001BEF04F08E0E006E27C001F026C002F075
:1003D000036A27AE05D0011E021E022A01E1012A8E
:1003E000015209E102C001F0026A080E005E0152EA
:1003F00002E1006A0AD0D89001BE04D0023601366C
:100400000006F9D727BE01D0019E4CEF04F0800E04
:10041000D8B22B1A306A316A27C02FF02B502F1A0E
:100420002650D8B4DCD02E6E006E2A50D8B4E0D05E
:100430002E5ED8B481D03DE32BC034F0348E2CC076
:1004400033F02DC032F0316AD89034323332323248
:1004500031322E2EF8D72FAE03D03080DDD0309041
:100460002E903088EA6A290EE96EE9D030982FBEC6
:100470000AD02EA013D03432333232323132002A35
:10048000D8B4C5D00BD034BE0CD0D890313632366B
:10049000333634360006D8B4BAD0F5D7308C6BD0AA
:1004A000309C27C02FF027AE02D0348EA9D0349EC6
:1004B000A7D02AC02EF02AC000F026502E5E27C0FA
:1004C00034F0348E28C033F029C032F0316AD8902D
:1004D00034323332323231322E2EF8D72FAE03D0AF
:1004E00030829AD030922E90308AEA6A2D0EE96ED0
:1004F000A6D0309A2FBE0AD02EA013D03432333279
:1005000032323132002AD8B482D00BD034BE0CD073
:10051000D89031363236333634360006D8B477D0F8
:10052000F5D7308E28D0309E2BC02FF02BAE02D0C6
:10053000348E66D0349E64D02BC034F0348E2CC000
:1005400033F02DC032F02FAE04D0349E308464D00E
:100550003094316A2E90EA6A290EE96E70D02FBE6F
:100560001CD027C02FF02EA006D0343233323232C6
:100570003132002A4CE031AE0BD0322A09E1332A65
:1005800007E1342A05E1343233323232002A3FE0C7
:1005900030BC86D730BEC7D71CD0800E341A34AEDC
:1005A00004D03AD02BC02FF00AD027C02FF03452FD
:1005B00006E1335204E1325202E1006A21D034BE36
:1005C00008D0D8903136323633363436002EF7D74D
:1005D0001ED02FAE02D0348E13D0349E11D02AC03C
:1005E00000F02BC034F02CC033F02DC032F008D016
:1005F00026C000F027C034F028C033F029C032F004
:1006000034C001F033C002F032C003F034D0006ACD
:10061000016A026A036A2FD0316A321E331E341E09
:10062000311E312A05E1322A03E1332A01E1342A5D
:1006300030B015D730B256D730B48AD7B3D7EF50D1
:10064000322605E3332A03E1342AD8B42E80ED5252
:10065000EF50332603E3342AD8B42E80ED52EF5006
:10066000EFBE01D0800A3426D8B02E8030B8FED636
:1006700030BA3FD774D712002250D8B4A5D02E6E0E
:100680002650D8B4A1D02E5E05E37F0E2E26D8B01A
:100690009BD006D0810E2E5ED8A096D0D8B494D030
:1006A0002EC000F0016A026A036A2D6A23C02CF092
:1006B0002C8E24C02BF025C02AF0190E2E6E295046
:1006C0002A5E0DE2010E2B5E0AE22C5E08E22D5E30
:1006D00006E22D2A2C2A2B2A29502A2628D02850F7
:1006E0002B5E12E2010E2C5E0FE22D5E0DE22D2A32
:1006F0002C2A28502B2629502A2619E32B2A17E1C9
:100700002C2A15E12D2A13D0275080092C5E0EE2E9
:10071000010E2D5E0BE22D2A275080092C26285031
:100720002B26E9E32C2AE7E12D2AE5D703802E2E9C
:1007300001D00BD0D8902A362B362C362D36D890B7
:100740000336023601362F36BAD72FA006D0D890FE
:100750000132023203322F3202D0000635E02FBEC2
:100760001ED0D8902A362B362C362D3629502A5EAC
:1007700007E2010E2B5E04E22C5E02E22D5E1AE31C
:1007800028502B5E05E2010E2C5E02E22D5E12E384
:10079000275080092C5E03E2010E2D5E0BE3032A35
:1007A00009E1022A07E1012A05E1002A0DE00132F0
:1007B0000232033223C02EF027502E1A2EAE02D062
:1007C000018E06D0019E04D0006A016A026A036AA3
:1007D000120013C025F012C024F011C023F010C085
:1007E00022F03B0E296EAA0E286E380E276E7F0E61
:1007F000266E16DD03C025F002C024F001C023F0F0
:1008000000C022F086D501C020F0219013C017F05F
:1008100012C016F011C015F010C014F013C025F06E
:1008200012C024F011C023F010C022F0296A286AF7
:10083000276A266A8BD505E32180206C1550800A33
:10084000156E1B6A1A6A196A186A236A180EE96E0D
:1008500023C0EAFF7F0E2024EF6E17C025F016C0DC
:1008600024F015C023F014C022F03B0E296EAA0E0E
:10087000286E380E276E7F0E266ED2DC03C025F060
:1008800002C024F001C023F000C022F0276A20C07B
:1008900026F026BE270696D5D88225C029F024C08A
:1008A00028F023C027F022C026F003C02DF002C09C
:1008B0002CF001C02BF000C02AF0A9DD03C017F016
:1008C00002C016F001C015F000C014F07C0E256EB9
:1008D000880E246E590E236E720E226E17C029F0F8
:1008E00016C028F015C027F014C026F099DC03C00C
:1008F00025F002C024F001C023F000C022F0D892FD
:1009000003C029F002C028F001C027F000C026F083
:10091000E00E2D6E970E2C6E260E2B6E750E2A6E27
:1009200076DD03C01FF002C01EF001C01DF000C044
:100930001CF01FC025F01EC024F01DC023F01CC0F9
:1009400022F017C029F016C028F015C027F014C0F7
:1009500026F066DC03C025F002C024F001C023F0BD
:1009600000C022F0D89203C029F002C028F001C0D4
:1009700027F000C026F0C40E2D6E1D0E2C6E1E0E2C
:100980002B6E780E2A6E43DD03C01FF002C01EF0EE
:1009900001C01DF000C01CF01FC025F01EC024F0D7
:1009A0001DC023F01CC022F017C029F016C028F08B
:1009B00015C027F014C026F033DC03C025F002C0B8
:1009C00024F001C023F000C022F0D89203C029F027
:1009D00002C028F001C027F000C026F05E0E2D6E88
:1009E000500E2C6E630E2B6E7A0E2A6E10DD03C035
:1009F0001FF002C01EF001C01DF000C01CF01FC09F
:100A000025F01EC024F01DC023F01CC022F017C02A
:100A100029F016C028F015C027F014C026F000DC1D
:100A200003C025F002C024F001C023F000C022F072
:100A3000D89203C029F002C028F001C027F000C0FE
:100A400026F01A0E2D6EFE0E2C6E750E2B6E7C0E81
:100A50002A6EDDDC03C01FF002C01EF001C01DF0D5
:100A600000C01CF01FC025F01EC024F01DC023F0E4
:100A70001CC022F017C029F016C028F015C027F0BE
:100A800014C026F010EC01F003C025F002C024F0E1
:100A900001C023F000C022F0D89203C029F002C0A8
:100AA00028F001C027F000C026F0180E2D6E720E3F
:100AB0002C6E310E2B6E7E0E2A6EA9DC03C01FF049
:100AC00002C01EF001C01DF000C01CF017C025F0D0
:100AD00016C024F015C023F014C022F01FC029F066
:100AE0001EC028F01DC027F01CC026F010EC01F03D
:100AF000D892296A286A276A7F0E266E03C02DF0D5
:100B000002C02CF001C02BF000C02AF080DC1BC01A
:100B100025F01AC024F019C023F018C022F003C039
:100B200029F002C028F001C027F000C026F010EC28
:100B300001F003C01BF002C01AF001C019F000C0A0
:100B400018F021A016D0256A246A236A7F0E226E2F
:100B50001BC029F01AC028F019C027F018C026F0D1
:100B60008BDD03C01BF002C01AF001C019F000C0F9
:100B700018F018C000F019C001F01AC002F01BC034
:100B800003F00BEF06F0C282C2B2FED7C3CF04F06F
:100B9000C4CF05F005C00DF004C00CF0F4EF00F078
:100BA000256A246A200E236E810E226E03C029F06E
:100BB00002C028F001C027F000C026F010EC01F0C0
:100BC00003C00FF002C00EF001C00DF000C00CF029
:100BD00003C025F002C024F001C023F000C022F0C1
:100BE000020E296E9A0E286E6A0E276E810E266EF0
:100BF00010EC01F003C00FF002C00EF001C00DF0C8
:100C000000C00CF02F0E136EDD0E126E640E116E0E
:100C10007D0E106EDED50FC025F00EC024F00DC085
:100C200023F00CC022F003C029F002C028F001C05C
:100C300027F000C026F010EC01F003C00FF002C056
:100C40000EF001C00DF000C00CF003C025F002C092
:100C500024F001C023F000C022F0296AC00E286EE3
:100C60007F0E276E880E266E07DD03C009F002C0D6
:100C700008F001C007F000C006F0D4EF07F01B2C0D
:100C800001D003D0400E1C6E01D01C6A010E1A5C0C
:100C90001C261C5080091D6E1E6A1F6EA5EC00F0FC
:100CA000120019500C0A05E0060A0DE0020A11E0D4
:100CB00016D01E6A010E1F6EA5EC00F0020E1A6E11
:100CC0001EEC00F012D0010E1A6E020E1B6ED7DF62
:100CD0000CD01E6A100E1F6EA5EC00F006D0010E9F
:100CE0001E6E19C01FF0A5EC00F012000900F552AD
:100CF0000CE0F6CF0CF0F7CF0DF0F5CF19F0D1DF07
:100D00000CC0F6FF0DC0F7FFF1D7DDEF07F00900CB
:100D1000F6CF0DF0F7CF0EF0F5CF19F0C2DF0DC012
:100D2000F6FF0EC0F7FF0C2EF2D712001950B608CE
:100D3000196E036A1AC01DF01A8ED8901A321B322F
:100D40001C320332023201320032192EF6D71DAEA8
:100D50000BD0001E011E021E031E002AD8B4012A59
:100D6000D8B4022AD8B4032A25EF07F0D8B203D0AA
:100D7000EA6A210EE96E006A016A026A036A216A60
:100D8000226A236A246A20501F101E101D102CE0B6
:100D9000200E256ED89019361A361B361C36213691
:100DA0002236233624362050245C08E11F50235C71
:100DB00005E11E50225C02E11D50215C0FE31D5035
:100DC000215E1E50D8A01E3C225E1F50D8A01F3CA2
:100DD000235E2050D8A0203C245ED8800036013607
:100DE00002360336252ED6D721C0EFFF22C0ECFFF6
:100DF00023C0ECFF24C0ECFF1200E950116E10502C
:100E0000136E1AE00FC025F00EC024F00DC023F0C1
:100E10000CC022F0296A286A200E276E820E266EE8
:100E200010EC01F003C00FF002C00EF001C00DF095
:100E300000C00CF0132EE6D70FC01CF00EC01BF044
:100E40000DC01AF00CC019F071D703C00FF002C02A
:100E50000EF001C00DF000C00CF00FAE0DD0110669
:100E6000118A0C1E0D1E0E1E0F1E0C2AD8B40D2A40
:100E7000D8B40E2AD8B40F2A3B0E186E9A0E176EED
:100E8000CA0E166E156A0A0E136E1050D8B4112AC7
:100E9000D882EA6A0C0EE96E0FC01CF00EC01BF07F
:100EA0000DC01AF00CC019F018C020F017C01FF0C8
:100EB00016C01EF015C01DF059DF015000520FE1A1
:100EC0001028135C0CE011500CE00F0B135C01E0D8
:100ED00037E211BE35D011BC04D0200E2DD0200E2B
:100EE000111611AA0CD0119A1050D8A41106005056
:100EF000116E2D0E196ED5DE1150006E116A105054
:100F0000135C0AE10050116E2E0E196ECADE1150EC
:100F1000006E200E1116000E300E11AA0DD0119A7F
:100F20001050D8A411060050116E2D0E196EB9DEA6
:100F30001150006E116A300E002600C019F0B1DEAB
:100F4000D89218C01CF017C01BF016C01AF015C0BC
:100F500019F0206A1F6A1E6A0A0E1D6E07DF03C0A1
:100F600018F002C017F001C016F000C015F0132EE3
:100F70008FD7F6EF07F0F86AD09E0B6A0A6AC15065
:100F8000C00B0F09C16E070EB46EC050C00B07092D
:100F9000C06EC08EC280000E016EC250C30B011025
:100FA000C26EC5EF00F0EFD5010E1A6E1B6E67DE44
:100FB000180EF66E000EF76E99D6010E1A6E020E1E
:100FC0001B6E5DDE260EF66E000EF76E080E0C6EC2
:100FD0009EDE890EE96E09C00FF008C00EF007C052
:100FE0000DF006C00CF0020E106E07D7330EF66E31
:100FF000000EF76E070E0C6E8ADE020E0C6EFA0EF5
:0E1000001A6E1EEC00F00C2EFAD7CDD70300AE
:020000040030CA
:0E00000034CE3E1E008581000FC00FE00F4081
:00000001FF
;PIC18F4550
;CRC=4BA7  CREATED="09-abr.-19 15:07"
